:020000040800F2
:1000000050360020CD010008EB160008A1080008BA
:10001000F10A0008F9030008132B00080000000093
:10002000000000000000000000000000B91F0008F0
:100030002D060008000000004302000855240008B7
:10004000E7010008E7010008E7010008E7010008F0
:10005000E7010008E7010008E7010008E7010008E0
:10006000E7010008E7010008E7010008E7010008D0
:10007000E7010008E7010008E7010008E7010008C0
:10008000E7010008E7010008E7010008E7010008B0
:10009000E7010008E7010008E7010008E7010008A0
:1000A000E7010008E7010008E7010008E701000890
:1000B000E701000819250008E7010008E70100082A
:1000C000E7010008E7010008E7010008E701000870
:1000D000E70100082D280008E7010008E7010008F3
:1000E000E7010008E7010008E7010008E701000850
:1000F000E7010008E7010008E7010008E701000840
:10010000E7010008E7010008E7010008E70100082F
:10011000E7010008E7010008E7010008E70100081F
:10012000E7010008E7010008E7010008E70100080F
:1001300000F002F800F03AF80AA090E8000C8244BF
:100140008344AAF10107DA4501D100F02FF8AFF29C
:10015000090EBAE80F0013F0010F18BFFB1A43F0A5
:1001600001031847682B0000882B0000103A24BFB9
:1001700078C878C1FAD8520724BF30C830C144BF0C
:1001800004680C607047000000230024002500264E
:10019000103A28BF78C1FBD8520728BF30C148BFEA
:1001A0000B6070471FB51FBD10B510BD00F0EFF814
:1001B0001146FFF7F7FF02F0F9FC00F00DF903B468
:1001C000FFF7F2FF03BC00F011F900000948804777
:1001D00009480047FEE7FEE7FEE7FEE7FEE7FEE729
:1001E000FEE7FEE7FEE7FEE704480549054A064B41
:1001F00070470000B9240008310100085030002089
:100200005036002050320020503200201B484FF062
:10021000FF010170002080F309881948016881F30B
:10022000088818484FF08051016062B6FEE7154813
:100230004FF080510160704712484FF080510160CB
:10024000704772B6EFF3098028B1203880E8F00FCC
:100250000D49096808600C480C490A6802604FF0B3
:10026000000008604FF00001106890E8F00F2030A7
:1002700080F309884EF0040E62B6704722ED00E06C
:100280006C00002004ED00E0180000201C0000209D
:10029000032A40F2308010F0030C00F0158011F8B2
:1002A000013BBCF1020F624498BF11F801CB00F88A
:1002B000013B38BF11F8013BA2F1040298BF00F8DE
:1002C00001CB38BF00F8013B11F0030300F0288098
:1002D000083AC0F0088051F8043B083A51F804CBC2
:1002E000A0E80810F5E7121D5CBF51F8043B40F888
:1002F000043BAFF30080D20724BF11F8013B11F893
:1003000001CB48BF11F8012B24BF00F8013B00F8D6
:1003100001CB48BF00F8012B70477047704770470A
:1003200010B5203AC0F00B80B1E81850203AA0E890
:100330001850B1E81850A0E81850BFF4F5AF5FEAC4
:10034000027C24BFB1E81850A0E8185044BF18C977
:1003500018C0BDE810405FEA827C24BF51F8043B1E
:1003600040F8043B08BF7047D20728BF31F8023B72
:1003700048BF11F8012B28BF20F8023B48BF00F806
:10038000012B704700487047EC2F002070477546DE
:10039000FFF7F8FFAE4605006946534620F0070018
:1003A000854618B020B5FFF71FFFBDE820404FF08D
:1003B00000064FF000074FF000084FF0000B21F04F
:1003C0000701AC46ACE8C009ACE8C009ACE8C0091C
:1003D000ACE8C0098D46704710B50446AFF3008005
:1003E0002046BDE81040FFF7EABE00000149182092
:1003F000ABBEFEE72600020000BFFEE708B5002006
:10040000009000BF0024002500F030F826E06A4686
:1004100001211348006801F08FF89DF80000C8B171
:1004200002281AD100F0BEF9044624B100F03AF8CF
:10043000601EC5B203E000F03FF8601CC5B229465B
:10044000022001F089FC074801880748006802F093
:1004500063FB02E001F04EFA00BF00BFD7E70000E7
:10046000BC2C0008160000202400002008B5012143
:10047000102001F0D9FA4FF40060ADF80000102010
:100480008DF8030003208DF802006946044800F04F
:10049000EBF84FF40061024800F07CF908BD000061
:1004A0000010014010B54FF40061024800F070F9EF
:1004B00010BD00000010014010B54FF4006102486B
:1004C00000F068F910BD0000001001401CB50020CC
:1004D0000190009099E001AA00214C48006800F0CA
:1004E000A8FF04469DF80400002879D0022802D114
:1004F00014B901F0FFF986E06946204600F034FBAC
:100500009DF800000C2879D2DFE800F0780613206F
:100510002E50364378785D6B01AA21463C4800682E
:1005200000F06CFD3B4801883B48006802F0F4FA9B
:1005300064E001AA21463648006800F05FFD01AA88
:1005400000213648006801F00EF857E03148018874
:100550003148006802F0E0FA01AB2246022130483F
:10056000006800F08BFF49E001AB224601212D48D5
:10057000006800F083FF41E001AA2146244800689A
:1005800000F03CFD234801882348006802F0C4FACB
:1005900034E001AA21461E48006800F02FFD01AAA0
:1005A00001212148006800F0DEFF27E001AA214672
:1005B0001748006800F022FD1648018816480068B8
:1005C00002F0AAFA1AE001AA21461148006800F0D8
:1005D00015FD104801881048006802F09DFA0DE0F2
:1005E0000EE001AA21460A48006800F007FD09480C
:1005F00001880948006802F08FFA00BF00BF02E0DE
:1006000001F078F900BF00BF00BF64E7A02C00082C
:10061000C42C00081600002024000020B42C000880
:10062000A82C0008A42C0008BC2C0008704700006F
:100630001CB500200190009012E001AA0021094899
:10064000006800F079FF9DF8040028B1022806D167
:10065000684600F0FBFA02E001F04CF900BF00BF71
:10066000EBE70000B42C00082DE9F041024600251C
:100670000026002000230024002791F803C00CF07E
:100680000F0591F803C00CF0100CBCF1000F03D063
:1006900091F802C04CEA050591F800C0BCF1000FCA
:1006A00031D0146800202BE04FF0010C0CFA00F35D
:1006B000B1F800C00CEA03069E4220D183004FF03F
:1006C0000F0C0CFA03F7BC4305FA03FC4CEA0404D4
:1006D00091F803C0BCF1280F06D14FF0010C0CFAC1
:1006E00000FCC2F814C00AE091F803C0BCF1480F46
:1006F00005D14FF0010C0CFA00FCC2F810C0401CF0
:100700000828D1D31460B1F800C0BCF1FF0F34DD6C
:10071000546800202EE000F1080C4FF0010808FAA0
:100720000CF3B1F800C00CEA03069E4221D183000D
:100730004FF00F0C0CFA03F7BC4305FA03FC4CEA2C
:10074000040491F803C0BCF1280F05D100F1080C96
:1007500008FA0CF8C2F8148091F803C0BCF1480FF5
:1007600007D100F1080C4FF0010808FA0CF8C2F8A4
:100770001080401C0828CED35460BDE8F0810246AA
:10078000002093680B400BB1012000E0002070476F
:1007900041617047016170470AB1016100E0416148
:1007A0007047000010B54FF480610348FFF7E7FF82
:1007B0000446204610BD000000100140F0B50020A6
:1007C000431E1B49096809B9052403E01849096853
:1007D00091F92240002206E01649895C002901DDDA
:1007E00053B202E0521CA242F6D300BFB3F1FF3F66
:1007F00000D1F0BD0F4EF65C761E0E4FFE540E4E2D
:1008000056F823100D7805B9F3E7486846684E603E
:100810004E6816B100264F68BE600026466001266D
:1008200080F821600E78761E0E7000BFE1E70000B0
:1008300018000020760000205800002030B500206D
:100840001449096801B930BD1249096891F922209B
:100850001149895C00291BDD0F4CA45C641E0E4D00
:10086000AC540E4C54F822100B7803B9EBE74868EF
:1008700044684C604C6814B100244D68AC6000249E
:100880004460012480F821400C78641E0C7000BF85
:1008900000BFD8E718000020760000205800002094
:1008A00000E07047FDE772B6704762B6704700001F
:1008B000002007E0054A52F8201000224A608A60B2
:1008C0000A70401C0528F5D370470000580000202E
:1008D00070B5002400254FF0D445284601F00CFBEC
:1008E0000446204670BD70B505464FF440542C4474
:1008F0002404204600F096F80646304670BD10B538
:1009000040F62801002000F0BAF840F2955101208D
:1009100000F0B5F84021022000F0B1F8802103205A
:1009200000F0ADF840F2A661042000F0A8F840F213
:10093000E531052000F0A3F840F6A301062000F001
:100940009EF84FF4C471072000F099F84FF6FF713C
:10095000082000F094F84FF6FF710A2000F08FF89D
:100960000F210C2000F08BF84FF6FF710A2000F0E9
:1009700073F800210A2000F082F800210A2000F01C
:100980006BF80021202000F07AF80021212000F0EF
:1009900076F80F21222000F072F8FF21232000F0CA
:1009A0006EF88021242000F06AF80921252000F04B
:1009B00066F84FF6FF71262000F061F802212A2028
:1009C00000F05DF84FF6FE712C2000F058F8002181
:1009D0002E2000F054F80321302000F050F840247D
:1009E00005E048F2FF01204600F049F8641C502C55
:1009F000F7D3602405E048F2FF01204600F03FF8FD
:100A0000641C702CF7D310BD70B5044600264FF05F
:100A1000006040EA0446304600F004F805462846E7
:100A200070BD000070B50446002500221021094861
:100A3000FFF7B2FE200C01F05FFA05462D04A0B2CC
:100A400001F05AFA0543012210210248FFF7A4FEE3
:100A5000284670BD000801402DE9F04104460D46CE
:100A6000002600274FF0204040EA044040EA0507F6
:100A70003846FFF7D7FF06463046BDE8F0812DE93E
:100A8000F04104460D46002600274FF0004040EAA2
:100A9000044040EA05073846FFF7C4FF06463046E3
:100AA000BDE8F08108B50020009000BF1BE06A4659
:100AB00004210D48006800F0BCFC04469DF80000CD
:100AC00060B102280DD114B900F014FF09E06A46A4
:100AD00021460648006800F091FA02E000F00AFFA3
:100AE00000BF00BF00BFE2E7B02C0008C42C000824
:100AF00000BFFEE770B50A4610B91325157070BD2A
:100B000090F82150022D02D11A251570F7E790F9BF
:100B10002230134D55F823100C783CB901250D7087
:100B20004860886000258560456009E00D786D1C8F
:100B30000D708D6885608D686860886000254560EF
:100B4000084DED5C6D1C074EF554022500F8215F41
:100B50004579857121380025157000BFCFE7000069
:100B600058000020760000202DE9FE4F80460C46FC
:100B700000200290B8F80470D8F8085095F800B03A
:100B8000E81910F8010C0190BBF1AA0F56D1019899
:100B9000BB2853D13946284601F028F907464FF0C3
:100BA00000090126E81910F8020C009005E0A85D84
:100BB000484400F0FF09701C86B2B81EB042F6DC53
:100BC0000098814533D195F801A0BAF1060F2CD2D7
:100BD000DFE80AF00308191C212400F0C9FF0620F1
:100BE000207022E00121084601F0B6F803202070B1
:100BF000022605E0A85DA91901F8020C701C86B256
:100C0000BE42F7DB11E0072020700EE001F01EF875
:100C10000B20207009E00520207006E0012105204E
:100C200001F09AF80A20207000BF00BF05E0FF2104
:100C3000042001F091F80120207005E0FF2104203C
:100C400001F08AF801202070BDE8FE8F7047000097
:100C5000F8B5074623480068C82805DA2148006827
:100C6000401C20490860F8BD0020009000241D4968
:100C7000086009E0641C1C48006830F814001B4937
:100C800009680844194908601748006800EB4400E7
:100C9000174909688842EDD114480068B0F5000F83
:100CA0001AD969461348006800F0DEF80646124B70
:100CB0000FCB86E80F0069461048006800F02EF957
:100CC0000546AE601020A8806B462A4602210C48DB
:100CD000006800F0D3FB00BF00200449086000BF9B
:100CE000C1E70000C8000020A8000020C4000020C8
:100CF000AC000020C82C0008B4000020C42C000860
:100D0000A82C000870B505464FF4FA7001F0E8FC15
:100D10000020FFF7E8FD0021C820FFF7B0FE1748CC
:100D20000068801C15490860084600681449096875
:100D3000884203D113480068104908600021C82088
:100D4000FFF79DFE0446200C0C49096808800B48FB
:100D500000680D490968884204D10B480068801C6E
:100D6000094908600848006805490968884203D1B4
:100D7000044800680449086070BD0000A400002019
:100D8000AC000020A8000020B00000207047000048
:100D900070B504461048006800B970BD0F4800687F
:100DA00000B9FAE70E480068012800D9F5E70C48B9
:100DB000006801280DD109480668012086F8210045
:100DC0000548056821462846FFF794FEFFF734FAE8
:100DD00000BF00BFE1E70000180000201C00002059
:100DE000000000202DE9F0410F46DDE906541FB94F
:100DF00008262670BDE8F08112B90D262670F9E7A5
:100E0000042B0DDA4FEAE37803EB98784FEAA80851
:100E1000A3EB8808B8F1000F02D00B262670E9E793
:100E2000012D02DA0C262670E4E701211E464FEA66
:100E3000E37803EB98784FEAA80C09E001FB0CF685
:100E400002EB86084E1E06FB0CF642F82680491C73
:100E5000A942F3D342600760038145818581002662
:100E6000267000BFC6E700002DE9F04104460D469C
:100E7000002611480068401C0F49086024B90A2068
:100E800028703046BDE8F081FFF70DFDA7892FB926
:100E90000B202870FFF709FD3046F3E766683068DD
:100EA000606000203060A089401EA0810020287072
:100EB000FFF7FBFC3046E5E7400000202DE9F0415C
:100EC00004460E4615461CB90A202870BDE8F0817C
:100ED00011480068401C1049086016B90D202870A0
:100EE000F4E7FFF7E0FCB4F80C806789781E404512
:100EF00005DAA7810E202870FFF7D7FCE6E76068C7
:100F000030606660A089401CA08100202870FFF737
:100F1000CCFC00BFDAE700003C0000202DE9F041E6
:100F200004460E461B480068401C1A49086024B954
:100F30000F2030700020BDE8F081FFF7B4FC256879
:100F4000277994F805802FB910203070FFF7ADFC99
:100F50000020F0E7286808B900BFFEE72868206095
:100F60002079401E20716079401C6071607908B959
:100F700000BFFEE700202860206808B900BFFEE738
:100F8000002030700DB900BFFEE7FFF78EFC284649
:100F9000D1E700004400002070B502460B4612B9AC
:100FA0000F21197070BD012013E0451E05EB4505AA
:100FB000104E06EB850400EB400506EB8501216031
:100FC0000025A580A560092802D10D608D808D6067
:100FD000401C0A28E9D30A211171002151710549E9
:100FE000116005490968491C034C216000211970F2
:100FF00000BFD7E7CC0000204C0000202DE9F041D5
:1010000004460D46164620480068401C1E490860EC
:101010001CB90F203070BDE8F08115B91120307077
:10102000F9E7FFF740FC94F80580B8F10A0F04DDFA
:101030000A206071002020712060B8F1000F04D1F7
:1010400012203070FFF731FCE5E7AF682FB1324670
:1010500039460E480068FFF731FF0020A860A880DD
:1010600020682860206808B900BFFEE72079401C8E
:1010700020716079401E6071256000203070FFF79C
:1010800014FC00BFC7E7000048000020C82C00087F
:101090002DE9F0470446884617461E46DDE90895C7
:1010A0001CB918202870BDE8F08717B908202870EF
:1010B000F9E716B906202870F5E72A464946304672
:1010C00000F00CF8287800B1EDE7676084F8008044
:1010D000E6600020A060287000BFE4E711B9092392
:1010E00013707047002303604360017243721370F2
:1010F00000BFF6E72DE9F04704460E461CB9132061
:101100003070BDE8F087FFF7CEFB4E480068A8B905
:101110004D480460012084F82100FFF777F84A4821
:10112000D0F8008000204849086031464046FFF76B
:10113000E1FC17203070FFF7B8FBE2E74148006898
:1011400090F9227094F92250BD423ADA3F48006883
:10115000012836D13C48006808B33B48006890F944
:101160002280454516DA3848D0F800900460012006
:1011700084F8210031464846FFF7BCFC3148D0F8DE
:1011800000A031465046FFF7B5FCFFF755F8FFF7D2
:101190008CFBB6E731462046FFF7ACFC10E02A484E
:1011A00004602848D0F8008031464046FFF7A2FC92
:1011B000012084F82100FFF73FF8FFF776FBA0E756
:1011C00039E0BD4213DA2148006880B91E48046046
:1011D000012084F821001B48D0F8008031464046A9
:1011E000FFF788FCFFF723F8FFF75FFB89E7BD42B5
:1011F0001DDA16480068012819D91348006898B10B
:101200001148006890F92280454508DA0E48D0F868
:101210000090046031464846FFF76CFC03E031461D
:101220002046FFF767FC06E00748046003E031460C
:101230002046FFF75FFC00203070FFF736FB00BF51
:101240005FE70000180000201C00002000000020C4
:1012500030B5039C10B91925257030BD12B9082589
:101260002570FAE7426001700373002585602570E0
:1012700000BFF2E710B588B00446042000210391B6
:10128000CDE9050404918020064904220023CDE91C
:1012900000210290044A05A10848006800F068F89F
:1012A00008B010BDEC2D00204D210008536C656581
:1012B000704D6F64655F5461736B0000A000002087
:1012C000F8B5FFF7F0FA2748006810B9FFF7EDFA14
:1012D000F8BD25480068401C2349086000200090A4
:1012E0002048046814F8270F401E207014F82709BE
:1012F00058BBFFF7A3FA05465DB994F8260084F8B9
:10130000270019480068401E17490860FFF7CDFA0A
:10131000DEE71648006810B91448056014E0134869
:10132000006890F9226095F92200B04207DA0F4870
:101330000768056069463846FFF7DCFB03E069464D
:101340002846FFF7D7FB00BF00BF6846FFF720FD28
:1013500005480068401E04490860FFF7A6FA00BF70
:10136000B6E7000018000020000000201C0000204C
:101370002DE9F05F04460F4616469846DDE90CABB2
:10138000DDF82C90109D1FB908202870BDE8F09F53
:1013900016B914202870F9E7B9F1000F02D1152011
:1013A0002870F3E7BAF1800F02DA16202870EDE713
:1013B00053464A464146304600F0F2F8083444F8B5
:1013C000080C67600A98A076C4F80890E660C4F834
:1013D0001080042060760F98A0770F98E077A4F82B
:1013E0001CA0083CBBF1000F07D0C4F81CB00120C2
:1013F00084F82000CBF8084008E00E9830B10E9831
:10140000E061022084F820000E988460FFF74BFA18
:1014100029462046FFF76EFB2878132802D1FFF7F4
:1014200044FAB3E7284600F0FCFCFFF73EFA00BFA1
:10143000ACE7F0B503460C46002013B9052717703A
:10144000F0BD1E78A64202D001271770F8E7D968D0
:1014500011B906271770F3E74D7A15B900271770F1
:10146000EEE7486807684F60002707604F7A7F1EE5
:101470004F720227177000BFE2E700002DE9FC5F02
:101480000746894614461D461CB904202870BDE84D
:10149000FC9FD4F808A0BAF1000F08D10D202870E5
:1014A0002A46214623480068FFF7A8FDEFE747B921
:1014B000052028702A4621461E480068FFF79EFD39
:1014C000E5E7387801900198484508D00120287058
:1014D0002A46214617480068FFF790FDD7E7FE68C7
:1014E00096F8098096F808B0D84508D103202870EE
:1014F0002A4621460F480068FFF780FDC7E7B8F18C
:10150000000F04D1346074600020206004E0306873
:101510000460346000202060707A401C7072B868EB
:10152000009029460098FFF7E5FD0020287000BFD5
:10153000ADE70000C42C000830B510B905251570C2
:1015400030BD0478037B8C4202D001251570F7E78B
:1015500013B900251570F3E7057B6D1E0573022591
:10156000157000BFECE72DE9F04104460E46154624
:101570001CB905202870BDE8F08194F80080B045C2
:1015800002D001202870F6E7207B401C2073A7685A
:1015900029463846FFF7AEFD0020287000BFEAE775
:1015A00070B5044610465D1E00EB850020F0070074
:1015B0004FF08076051F28462E60051F28462C60B8
:1015C000051F28462C604FF01236051F28462E6056
:1015D0004FF00336051F28462E604FF00236051FD8
:1015E00028462E607610051F28462E60051F2846C7
:1015F00029604FF01136051F28462E604FF0103637
:10160000051F28462E604FF00936051F28462E601C
:101610004FF00836051F28462E604FF00736051F8D
:1016200028462E604FF00636051F28462E604FF0E4
:101630000536051F28462E604FF00436051F284644
:101640002E6070BD704700002DE9FF4705468846B3
:101650009146AF68102239466846FEF719FE009899
:1016600058B10099029848434FF47A71B0FBF1F0F9
:101670001949086000201949086019490198087043
:101680000098400042F21071B1FBF0F00199401A4D
:10169000144908709DF80C0040F40046602404E0F2
:1016A00031462046FFF7EBF9641C702CF8D3402438
:1016B00004E031462046FFF7E2F9641C502CF8D3D1
:1016C00000212020FFF7C8F900212120FFF7C4F9ED
:1016D00000F0FCFFBDE8FF870C0000201000002098
:1016E00007000020080000207047704770B50021F7
:1016F00000230F22C47804B3154C246804F4E0647A
:10170000C4F5E064210AC1F10403CA40447804FA34
:1017100003F184781440214309010E4C0678A15549
:10172000047804F01F050124AC4005786D11AD006C
:1017300005F1E025C5F8004109E0047804F01F0533
:101740000124AC40044D0678761145F8264070BD62
:101750000CED00E000E400E080E100E01CB5044690
:101760000320344B34A20021CDE900043548006841
:10177000FFF78EFC03202F4B0C3333A20121CDE960
:10178000000435480068FFF783FC0320294B183319
:1017900032A20221CDE9000433480068FFF778FC4B
:1017A0000320244B243331A20146CDE90004324802
:1017B0000068FFF76DFC03201E4B30332FA204217D
:1017C000CDE9000430480068FFF762FC00232FA237
:1017D0001946314800940068FFF73AFD00232FA214
:1017E0000221314800940068FFF732FD00232FA248
:1017F0000121314800940068FFF72AFD00232FA241
:101800000321334800940068FFF722FD2146314848
:101810000068FFF7C1FB0A204FF400732E4A2FA186
:10182000CDE9000432480068FFF7DCFAFFF740F822
:101830001CBD00004401002044617461436865637D
:101840006B5F5100A02C00085772697465466C618B
:1018500073685F5100000000A42C00085374696D88
:10186000756C6174655F5100A82C00085265616455
:10187000466C6173685F5100AC2C0008457272437E
:101880006865636B5F510000B02C0008456C6549CA
:101890006D705F53656D0000B42C0008456C654C9D
:1018A00061636B5F53656D00B82C0008436861721B
:1018B00067655F53656D0000BC2C000853616D7057
:1018C0006C65416E6445727243686B5F53656D0071
:1018D000C02C0008C42C00085C02002031323830D3
:1018E00020496E742063617061636974790000003F
:1018F000C82C00082DE9F047FEF7D5FF4FF0FF3662
:1019000000271F48006808B9BDE8F0874FF00508B8
:10191000002506E01B48405D002801DD6EB202E0B4
:101920006D1C4545F6D300BFB6F1FF3F00D1EBE794
:101930001448805D401E13498855134850F82640CE
:1019400094F80090B9F1000F00D1DDE7676878687E
:101950006060606810B10020616888600020786075
:101960002078401E2070012087F82100074807607A
:10197000FEF75DFC00BFFEF798FF00BFC4E7000064
:101980001800002076000020580000201C000020D5
:1019900070B50446214615480068FFF7BFFA0546B2
:1019A00013480078A88013480068A86021461248B0
:1019B0000068FFF759FA0F4908600846006808B93F
:1019C00000BFFEE701200D49087023462A4600218A
:1019D0000B480068FFF752FDFEF765FF09480068F5
:1019E000401E08490860FEF760FF70BDC42C000867
:1019F0000600002020000020C82C00080400002061
:101A0000A02C00080000002029B1064AD269024338
:101A1000044BDA6104E0034AD2698243014BDA6184
:101A2000704700000010024029B1064A9269024343
:101A3000044B9A6104E0034A92698243014B9A6124
:101A4000704700000010024030B500210022002441
:101A500000232D4D6D6805F00C0121B1042905D03E
:101A6000082923D105E0294D056022E0274D0560B6
:101A70001FE0254D6D6805F47012234D6D6805F467
:101A80008034022505EB92421CB9214D5543056077
:101A90000BE01D4D6D6805F400351DB11C4D55431F
:101AA000056002E0194D5543056002E0174D0560E1
:101AB00000BF00BF144D6D6805F0F0010909154D18
:101AC0006B5C0568DD4045600F4D6D6805F4E061B5
:101AD000090A104D6B5C4568DD4085600A4D6D68F4
:101AE00005F46051C90A0B4D6B5C4568DD40C5606B
:101AF000054D6D6805F44041890B074D6B5CC56869
:101B0000B5FBF3F5056130BD0010024000127A000C
:101B100000093D0028000020380000201CB50020EE
:101B2000019000901FE001AA03210F480068FFF711
:101B300080FC04469DF8040080B1022811D114B93C
:101B4000FFF7D8FE0DE069462046FFF77BFD01AAAE
:101B5000214606480068FFF751FA02E0FFF7CAFE87
:101B600000BF00BF00BFDEE7AC2C0008C42C00089B
:101B700010B50022334B1A80AA22334B1B68314C1C
:101B800024881A552F4A1288521C2E4B1A80002284
:101B90002D4B1B682B4C24881A552A4A1288521C3C
:101BA000284B1A800122284B1B68264C24881A5582
:101BB000244A1288521C234B1A800223224A12689C
:101BC000204C248813551F4A1288521C1D4B1A8022
:101BD00003231D4A12681B4C24881355194A128886
:101BE000521C184B1A800422174B1B68154C248872
:101BF0001A55144A1288521C124B1A8001200021D7
:101C000006E0114A1268125C0A44D1B2421CD0B2FA
:101C10000C4A12889042F4DB0B4A1268094B1B886D
:101C2000D154084A1288521C064B1A80BB22064B1C
:101C30001B68044C24881A55024A1288521C014B16
:101C40001A8010BD160000202400002030B50021AD
:101C50003B4A1180AA223B490968394C24880A551D
:101C600037490988491C364A1180032235490968D9
:101C7000334C24880A5532490988491C304A11805E
:101C800031490968314A1268914219D92E4C2268AB
:101C9000002112E015882B4C2468A41C24F8115054
:101CA000921C274C2488A41C254D2C80284C246889
:101CB000A24201D1274C2268491CC829EAD31BE063
:101CC000214C2268002114E015881E4C2468A41CB5
:101CD00024F81150921E1A4C2488A41C184D2C80F4
:101CE0001C4C2468A41E944202D1194C2268921EF6
:101CF000491CC829E8D300BF0120002306E0114990
:101D00000968095C1944CBB2411C88B20C490988A6
:101D10008842F4DB0B490968094A12888B54084948
:101D20000988491C064A1180BB2206490968044CEF
:101D300024880A5502490988491C014A118030BD8E
:101D40001600002024000020A4000020B000002085
:101D5000AC000020A800002070B502460024214DF0
:101D60002C80AA24204D2D681E4E3688AC551D4C63
:101D70002488641C1B4D2C801B4C24682D886255C4
:101D8000184C2488641C174D2C80174C24682D880F
:101D90006155144C2488641C124D2C8001200023B2
:101DA00006E0114C2468245C1C44E3B2441CE0B2FD
:101DB0000C4C2488A042F4DB0B4C2468094D2D8880
:101DC0006355084C2488641C064D2C80BB25064CAA
:101DD0002468044E3688A555024C2488641C014DA5
:101DE0002C8070BD160000202400002070B5024633
:101DF0000B4602210220002400250AE0545C5618FC
:101E000075782E4664F31F161654461CB0B28E1C0D
:101E1000F1B29E1E8E42F1DCBB261654461CB0B2B7
:101E200070BD70B50446FEF73EFDFEF7C7FC0546E3
:101E30001DB121462846FFF75DF9FEF736FD70BD5E
:101E400000B587B0012141F20C00FFF7EDFD4FF422
:101E50008060ADF8040002208DF8060010208DF897
:101E6000070001A92148FEF7FFFBE020ADF80400C0
:101E700002208DF8060018208DF8070001A91C48E3
:101E8000FEF7F2FB1020ADF8040002208DF80600EA
:101E900010208DF8070001A91548FEF7E5FB00208A
:101EA000ADF808004FF48270ADF80A004FF40060FE
:101EB000ADF80C000020ADF80E00ADF810004FF4A6
:101EC0000070ADF812000820ADF814000020ADF845
:101ED00016000720ADF8180002A9064800F04EF8D9
:101EE0000121044800F030F807B000BD000C0140AB
:101EF000000801400030014070B50546002405E0AF
:101F0000601CC4B2C82C01DD002070BD02210D4848
:101F100000F026F80028F3D029460A4800F02CF8F3
:101F2000002405E0601CC4B2C82C01DD0020ECE7F1
:101F30000121044800F014F80028F3D0014800F013
:101F400018F8E2E70030014021B1028842F0400277
:101F5000028004E002884FF6BF731A400280704787
:101F60000246002013890B400BB1012000E0002045
:101F700070470146888970478181704710B50022FB
:101F8000028802F441520B884C8823438C882343F7
:101F9000CC8823430C8923434C8923438C892343D6
:101FA000CC8923431A430280838B4FF2FF74234072
:101FB00083830B8A038210BD704700001CB500208C
:101FC0000190009001A921480068FEF74DFF2049CB
:101FD00008600846006808B900BFFEE71C480068B2
:101FE0001C4908601A4800681B49086017480068C7
:101FF00005896C080846006800EB44001749086032
:10200000FFF71EFF4FF4964000F0FAFDFEF760FC6C
:1020100000F030FB00F082FBFEF771FC15E001AA36
:1020200003210F480068FFF787FA9DF8040020B1EC
:10203000022809D1FFF75EFC06E001A8FEF762FE68
:102040006846FEF705FE00BF00BFE8E7C82C0008A1
:10205000B0000020A4000020A8000020AC00002058
:10206000C02C000810B500F001F810BD0CB5002020
:10207000019000903348006840F480303149086096
:1020800000BF3048006800F4003000900198401C08
:102090000190009818B90198B0F5A06FF1D12948C6
:1020A000006800F4003010B10120009001E0002031
:1020B00000900098012843D12348006840F01000A8
:1020C000214908600846006820F0030008600846BF
:1020D000006840F0020008601A48406819494860EA
:1020E0000846406848600846406840F480604860A0
:1020F0000846406820F47C1048600846406840F478
:10210000E81048600846006840F08070086000BF32
:102110000C48006800F000700028F9D009484068B9
:1021200020F00300074948600846406840F002007C
:10213000486000BF0348406800F00C000828F9D14F
:102140000CBD0000001002400020024088B00020BA
:10215000079007A80421614A12680023CDE90332E1
:10216000CDE9051080205E490222CDE900210290D0
:102170005C4A5DA160480068FFF7FAF807A80421EF
:102180005E4A12680023CDE90332CDE905108020B4
:102190005B490322CDE9002102905A4A5AA15E48C8
:1021A0000068FFF7E5F807A8042100225B4B1B68D5
:1021B000CDE90332CDE905108020594903220023DF
:1021C000CDE900210290574A57A15B480068FFF70C
:1021D000CFF807A80421594A12680023CDE9033239
:1021E000CDE90510802056490322CDE90021029057
:1021F000544A55A158480068FFF7BAF807A80421C7
:10220000564A12680023CDE90332CDE9051080203B
:1022100053490322CDE900210290524A52A1564867
:102220000068FFF7A5F807A904220020534B1B689C
:10223000CDE90330CDE90521802051490322002357
:10224000CDE9002102904F4A4FA152480068FFF7A4
:102250008FF807A9042200204F4B1B68CDE90330FB
:10226000CDE9052180204D4900221346CDE900210A
:1022700002904B4A4BA14F480068FFF779F807A836
:1022800004214D4A12680023CDE90332CDE905103F
:1022900080204A490122CDE900210290404A48A10C
:1022A0004B480068FFF764F807A904220020494B57
:1022B0001B68CDE90330CDE9052180204649032282
:1022C0000023CDE900210290444A45A14A48006814
:1022D000FFF74EF801E0FEF759FDFCE7A82C0008D7
:1022E000EC1F0020FD2300085374696D756C617448
:1022F000655F5461736B000084000020A42C00080B
:10230000EC1D0020452B00085772697465466C610E
:1023100073685F5461736B0080000020B42C000868
:10232000EC23002031060008456C65416E64496D60
:10233000705F5461736B00008C000020AC2C0008AF
:10234000EC2100201D1B000852656164466C61731E
:10235000685F5461736B000088000020A02C0008A7
:10236000EC1B0020CD040008446174614368656380
:102370006B5F5461736B00007C000020BC2C000874
:10238000EC270020FD0300084368617267655F5415
:1023900061736B0094000020B82C0008EC2500202D
:1023A000A50A0008456C654C61636B5F5461736BF3
:1023B0000000000090000020B02C0008EC2B002052
:1023C000457272436865636B5F5461736B00000014
:1023D0009C000020C02C0008EC290020BD1F000834
:1023E00053616D706C65416E6445727243686B5FDA
:1023F0005461736B00000000980000201CB50020A1
:102400000190009020E001AA022110480068FFF727
:1024100010F804469DF8040088B1022812D114B9BE
:10242000FFF768FA0EE001AA69462046FFF70CF9AB
:1024300001AA214606480068FEF7E0FD02E0FFF72A
:1024400059FA00BF00BF00BFDDE70000A82C00085C
:10245000C42C000810B5FEF733FF10BD30B54FF4A3
:10246000E151B1F1807F01D301201DE021F07F40D7
:10247000401E4FF0E022506150170F22002807DA6B
:1024800013071D0E0A4B00F00F04241F1D5503E017
:1024900013071C0E074B1C5400BF00204FF0E02216
:1024A000906107201061002008B100BFFEE730BD39
:1024B00018ED00E000E400E010B51348006840F0BB
:1024C00001001149086008464068104908400E495B
:1024D0004860084600680E4908400B4908600846F5
:1024E000006820F4802008600846406820F4FE0060
:1024F00048604FF41F008860FFF7B4FD4FF00060A4
:102500000449086010BD0000001002400000FFF800
:10251000FFFFF6FE08ED00E008B5FEF7C4F94C48F1
:102520000068401C4A490860FEF7BFF94948007836
:1025300030B1012825D002283AD0032871D14FE0CC
:1025400045480078401E4449087008460078B8B9EC
:1025500048F2FF012C20FEF77FFA4AF6AA2120203C
:10256000FEF77AFAFF212120FEF776FA0120FEF726
:102570004BFA01203749087038480078384908700C
:102580004FE037480078401E35490870084600780B
:1025900068B900212C20FEF75FFA0120FEF734FA1B
:1025A00002202C4908702D4800782D49087038E029
:1025B0002B480078401E2A4908700846007870B9F8
:1025C00000212020FEF748FA00212120FEF744FADE
:1025D000032020490870234800781F49087020E034
:1025E0001D480078401E1C49087008460078B8B99C
:1025F0001D480068401C1C490860084600681B49CB
:102600000968884205D91A48008820F00100184955
:10261000088000200F490870124800780E490870A1
:1026200000BF00BF0121124800F093F818B101214A
:102630000F4800F08BF8FEF736F96846FEF7A8FB66
:1026400003480068401E02490860FEF72EF908BDE5
:1026500000000020140000200A00002007000020D5
:102660000900002008000020100000200C000020BD
:10267000000400401FB501210220FFF7C5F9092021
:10268000ADF8040040F2CF20ADF800000020ADF816
:102690000600ADF8020069460B4800F075F801220B
:1026A0001146094800F066F81D208DF80C00002046
:1026B0008DF80D0003208DF80E0001208DF80F001D
:1026C00003A8FFF713F81FBD00040040034800886B
:1026D00040F00100014908807047000000040040FC
:1026E00001210D4A11800CE000BF0B49103109880F
:1026F00001F001010029F8D04FF6FE71064A1032B0
:102700001180011EA0F10100EED10349098821F0DA
:102710000101014A11807047000800400EB50121F7
:102720000420FFF771F90920ADF804004720ADF847
:1027300000000020ADF80600ADF80200694602482E
:1027400000F022F80EBD000000080040CA430282DB
:10275000704730B50246002000230024158A05EAA0
:102760000103958905EA010413B10CB1012000E0D1
:10277000002030BD1AB183890B43838102E0838935
:102780008B43838170470000002202881D4B9842D2
:102790000ED01D4B98420BD0B0F1804F08D01B4B90
:1027A000984205D01A4B984202D01A4B984204D155
:1027B0004FF68F731A404B881A43174B984207D035
:1027C000164B984204D04FF6FF431A40CB881A4369
:1027D00002808B8883850B8803850A4B98420BD037
:1027E000094B984208D00E4B984205D00D4B9842A9
:1027F00002D00D4B984201D10B7A038601238382CC
:1028000070470000002C01400034014000040040EB
:1028100000080040000C0040001000400014004080
:1028200000400140004401400048014038B5FEF737
:102830003AF844480068401C42490860FEF735F801
:1028400000240821404800F097F810B13E4800F0FD
:102850005BF940F225513C4800F09BF8002862D01B
:10286000394800F051F9C4B2AA2C05D102203749E9
:10287000087000203649087034480078012850D08C
:10288000022802D003284DD123E0062C1BDA314860
:10289000005D31490870AA20304909682C4A127835
:1028A00088542B480078401C294908702B48006840
:1028B0000978445426480078401C254908700320B4
:1028C0002249087004E0AA2C02D001201F49087098
:1028D00028E0224800681E49097844541C480078C2
:1028E000401C1B4908701C4800780978884206D1B2
:1028F0006846FFF74DF800201549087038BDBB2C1D
:102900000ED1AB2015490968114A1278114401F81B
:10291000010C6846FFF73CF800200D490870EDE710
:1029200000E000BF00BFFDF7BEFF6846FEF730FACB
:1029300004480068401E03490860FDF7B6FF00BF69
:10294000DCE7000000000020003801400400002007
:10295000060000207000002005000020200000205C
:1029600021B1828942F40052828104E082894DF6CD
:10297000FF731A408281704702460020B1F5007F44
:1029800000D100BF13880B400BB1012000E00020F4
:10299000704770B50246002400230025002040F651
:1029A0006A16B14200D100BFC1F3421501F01F0306
:1029B000012606FA03F3012D02D19689334006E081
:1029C000022D02D1168A334001E0968A33400C1260
:1029D000012606FA04F41688344013B10CB1012024
:1029E00000E0002070BDF0B503460024002600255D
:1029F000002040F66A17B94200D100BF1846C1F363
:102A0000421401F01F06012707FA06F5012C01D137
:102A10000C3004E0022C01D1103000E014301AB167
:102A200007682F43076002E00768AF430760F0BD07
:102A30002DE9F04786B005460E460024A24600BFA9
:102A4000A1460027B08900B100BF2F462C8A4CF662
:102A5000FF700440F08804432C82AC894EF6F310DA
:102A60000440B08831890843718908430443AC812C
:102A7000AC8A4FF6FF400440B0890443AC8201A801
:102A8000FEF7E2FF1F48874202D1DDF810A001E007
:102A9000DDF80CA0A88900F4004040B10AEBCA00A0
:102AA00000EB0A1031684900B0FBF1F807E00AEBCF
:102AB000CA0000EB0A1031688900B0FBF1F864200D
:102AC000B8FBF0F004012009642101FB1089A889FA
:102AD00000F4004040B1322000EBC900B0FBF1F03F
:102AE00000F00700044308E0322000EB09106421E5
:102AF000B0FBF1F000F00F0004432C8106B0BDE8FC
:102B0000F08700000038014001468888C0F30800C3
:102B1000704700BFFEE7000010B5002200BF0CE0C8
:102B20000378074C238000BF054B1B1F1B8803F055
:102B30004003002BF8D0401C521C8A42F0DB10BD31
:102B4000043801401CB500200190009029E001AA42
:102B5000012114480068FEF76CFC04469DF804004F
:102B6000D0B102281BD114B9FEF7C4FE17E06946A4
:102B70002046FEF7B9FD01AA21460B480068FEF782
:102B80003DFA9DF80000082802D0092802D100E093
:102B900000E000BF00BF02E0FEF7ACFE00BF00BFD8
:102BA00000BFD4E7A42C0008C42C000808B50020FE
:102BB0000090FFF753FC6846FEF7D0FD69460D48CC
:102BC0000068FEF751F90C49086069460948006839
:102BD000FEF74AF9094908600748006810B108463D
:102BE000006808B900BFFEE76846FEF743FB00BF78
:102BF000FEE70000C82C0008200000202400002070
:102C000010B586B00446012144F20400FEF70CFF23
:102C10004FF40070ADF8140003208DF81600182052
:102C20008DF8170005A91C48FDF71EFD4FF48060C4
:102C3000ADF8140004208DF8170005A91648FDF71B
:102C400013FD25208DF8000003208DF801008DF87C
:102C5000020001208DF803006846FEF747FD01944D
:102C60000020ADF80800ADF80A00ADF80C00ADF892
:102C700010000C20ADF80E0001A90848FFF7D8FE9F
:102C8000012240F225510548FFF7ADFE012103481E
:102C9000FFF766FE06B010BD000801400038014095
:102CA0008001002090010020A0010020B001002040
:102CB000C0010020D0010020F0010020E001002030
:102CC00000020020500000204C020020EC2C0008E4
:102CD00000000020CC0000006C010008B82D0008A6
:102CE000CC000020843500008801000800000000AE
:102CF00001000000000000000000000000000000D3
:102D000000000000000000000000000000000000C3
:102D1000000000000000000001020304010203049F
:102D20000607080902040608000000000000000071
:102D30000000000000000000000000000000000093
:102D400000000000100200201C02002028020020C9
:102D500034020020400200205C160020051F0709F5
:102D60000B0D0000000000005C1A0020841A0020F7
:102D7000AC1A0020D41A0020FC1A00204C1B0020A2
:102D8000241B0020741B00209C1B0020C41B00205F
:102D90000000000000000000000000000000000033
:102DA000F401000002000000640000005000000078
:082DB00000000000000000001B
:0400000508000131BD
:00000001FF
